:100000000C9472000C9493000C9493000C94930045
:100010000C9493000C94570F0C94830F0C94930042
:100020000C9493000C9493000C9493000C94930004
:100030000C9493000C9493000C9493000C949300F4
:100040000C9493000C9493000C9493000C949300E4
:100050000C9493000C9493000C9493000C949300D4
:100060000C9493000C94AF0F0C9493000C94930099
:100070000C9493000C9493000C9493000C949300B4
:100080000C9493000C9493000C9493000C949300A4
:100090000C9493000C9493000C9493000C94930094
:1000A0000C9493000C9493000C9493000C94930084
:1000B0000C9493000C9493000C9493000C94930074
:1000C0000C9493000C9493000C9493000C94930064
:1000D0000C9493000C9493000C9493000C94930054
:1000E0000C94930011241FBECFEFD1E2DEBFCDBF31
:1000F00000E00CBF13E0A0E0B2E0EEE1F6E300E0C8
:100100000BBF02C007900D92AE30B107D9F713E0D4
:10011000AEE0B3E001C01D92AC34B107E1F70E943C
:10012000E0110C940D1B0C9400000F931F93DF93B0
:10013000CF93CDB7DEB7C057D0400FB6F894DEBF2F
:100140000FBECDBFFE01E359FF4F80E090E0A0E875
:10015000BFE380839183A283B3838E0107591F4F2E
:10016000FE01E359FF4F608171818281938126E610
:1001700036E646E655E40E946C15DC01CB01F80139
:1001800080839183A283B383FE01E759FF4F60818F
:1001900071818281938120E030E040E85FE30E943A
:1001A0007217882344F4FE01E959FF4F81E090E083
:1001B0009183808364C0FE01E759FF4F60817181A4
:1001C0008281938120E03FEF4FE757E40E941217AE
:1001D00018160CF043C0FE01E359FF4F6081718196
:1001E0008281938120E030E040E251E40E946C156E
:1001F000DC01CB018E0109591F4FBC01CD010E94CA
:100200009613DC01CB01F801918380831FC0FE01AE
:10021000EB59FF4F80E791E091838083FE01EB591A
:10022000FF4F808191810197F1F7FE01EB59FF4F5C
:1002300091838083DE01A959BF4FFE01E959FF4F29
:1002400080819181019711969C938E93FE01E959CB
:10025000FF4F808191810097D1F627C08E01095907
:100260001F4FFE01E759FF4F6081718182819381A9
:100270000E949613DC01CB01F80191838083DE019B
:10028000AD59BF4FFE01E959FF4F808191818D9398
:100290009C93FE01ED59FF4F808191810197F1F709
:1002A000FE01ED59FF4F91838083A8E2B0E0E8E2C0
:1002B000F0E080818E7F8C93A8E2B0E0E8E2F0E08D
:1002C00080818D7F8C93E8E2F0E080E38083A8E278
:1002D000B0E0E8E2F0E0808184608C93FE01E15AB6
:1002E000FF4F80E090E0A0EAB0E480839183A28396
:1002F000B3838E01055A1F4FFE01E15AFF4F608103
:1003000071818281938126E636E646E655E40E94B5
:100310006C15DC01CB01F80180839183A283B38348
:10032000FE01E55AFF4F608171818281938120E057
:1003300030E040E85FE30E947217882344F4FE0136
:10034000E75AFF4F81E090E09183808364C0FE0113
:10035000E55AFF4F608171818281938120E03FEFF8
:100360004FE757E40E94121718160CF043C0FE0125
:10037000E15AFF4F608171818281938120E030E0FA
:1003800040E251E40E946C15DC01CB018E01075A5A
:100390001F4FBC01CD010E949613DC01CB01F80177
:1003A000918380831FC0FE01E95AFF4F80E791E0EF
:1003B00091838083FE01E95AFF4F808191810197EB
:1003C000F1F7FE01E95AFF4F91838083DE01A75ABE
:1003D000BF4FFE01E75AFF4F80819181019711962F
:1003E0009C938E93FE01E75AFF4F80819181009785
:1003F000D1F627C08E01075A1F4FFE01E55AFF4F65
:1004000060817181828193810E949613DC01CB010E
:10041000F80191838083DE01AB5ABF4FFE01E75A9A
:10042000FF4F808191818D939C93FE01EB5AFF4F8A
:10043000808191810197F1F7FE01EB5AFF4F918383
:100440008083A8E2B0E0E8E2F0E080818B7F8C93CB
:10045000FE01EF5AFF4F80E090E0A0E8BFE3808309
:100460009183A283B3838E01035B1F4FFE01EF5A7A
:10047000FF4F608171818281938126E636E646E6F0
:1004800055E40E946C15DC01CB01F8018083918357
:10049000A283B383FE01E35BFF4F608171818281A0
:1004A000938120E030E040E85FE30E9472178823E8
:1004B00044F4FE01E55BFF4F81E090E0918380838F
:1004C00064C0FE01E35BFF4F608171818281938193
:1004D00020E03FEF4FE757E40E94121718160CF088
:1004E00043C0FE01EF5AFF4F608171818281938189
:1004F00020E030E040E251E40E946C15DC01CB01C9
:100500008E01055B1F4FBC01CD010E949613DC01DB
:10051000CB01F801918380831FC0FE01E75BFF4F91
:1005200080E791E091838083FE01E75BFF4F80814C
:1005300091810197F1F7FE01E75BFF4F9183808383
:10054000DE01A55BBF4FFE01E55BFF4F808191811E
:10055000019711969C938E93FE01E55BFF4F80817E
:1005600091810097D1F627C08E01055B1F4FFE01D8
:10057000E35BFF4F60817181828193810E949613BA
:10058000DC01CB01F80191838083DE01A95BBF4FC1
:10059000FE01E55BFF4F808191818D939C93FE016D
:1005A000E95BFF4F808191810197F1F7FE01E95BE3
:1005B000FF4F91838083A8E2B0E0E8E2F0E0808121
:1005C0008E7F8C93A8E2B0E0E8E2F0E080818D7F3E
:1005D0008C93E8E2F0E080E38083A8E2B0E0E8E218
:1005E000F0E0808184608C93FE01ED5BFF4F80E042
:1005F00090E0A0EAB0E480839183A283B3838E016C
:10060000015C1F4FFE01ED5BFF4F608171818281B4
:10061000938126E636E646E655E40E946C15DC0139
:10062000CB01F80180839183A283B383FE01FF96FF
:10063000608171818281938120E030E040E85FE356
:100640000E94721788232CF481E090E09EAF8DAF5A
:1006500046C0FE01FF96608171818281938120E016
:100660003FEF4FE757E40E941217181664F5FE019A
:10067000ED5BFF4F608171818281938120E030E0EA
:1006800040E251E40E946C15DC01CB01BC01CD01BC
:100690000E949613DC01CB019EAF8DAF0FC080E7A7
:1006A00091E09CAF8BAF8BAD9CAD0197F1F79CAF08
:1006B0008BAF8DAD9EAD01979EAF8DAF8DAD9EADD5
:1006C000009769F716C0FE01FF96608171818281F3
:1006D00093810E949613DC01CB019EAF8DAF8DAD4F
:1006E0009EAD9AAF89AF89AD9AAD0197F1F79AAFF8
:1006F00089AFA8E2B0E0E8E2F0E080818B7F8C93E4
:1007000080E090E0A0E8BFE38DAB9EABAFABB8AFAD
:100710006DA97EA98FA998AD26E636E646E655E492
:100720000E946C15DC01CB0189AB9AABABABBCABC7
:1007300069A97AA98BA99CA920E030E040E85FE391
:100740000E94721788232CF481E090E098AB8FA769
:100750003FC069A97AA98BA99CA920E03FEF4FE788
:1007600057E40E94121718164CF56DA97EA98FA99F
:1007700098AD20E030E040E251E40E946C15DC01CD
:10078000CB01BC01CD010E949613DC01CB0198ABDB
:100790008FA70FC080E791E09EA78DA78DA59EA58E
:1007A0000197F1F79EA78DA78FA598A9019798AB00
:1007B0008FA78FA598A9009769F714C069A97AA98E
:1007C0008BA99CA90E949613DC01CB0198AB8FA743
:1007D0008FA598A99CA78BA78BA59CA50197F1F73E
:1007E0009CA78BA7A8E2B0E0E8E2F0E080818E7FD2
:1007F0008C93A8E2B0E0E8E2F0E080818D7F8C93FA
:10080000E8E2F0E080E38083A8E2B0E0E8E2F0E034
:10081000808184608C9380E090E0A0EAB0E48FA3B4
:1008200098A7A9A7BAA76FA178A589A59AA526E632
:1008300036E646E655E40E946C15DC01CB018BA33D
:100840009CA3ADA3BEA36BA17CA18DA19EA120E022
:1008500030E040E85FE30E94721788232CF481E0C7
:1008600090E09AA389A33FC06BA17CA18DA19EA11A
:1008700020E03FEF4FE757E40E94121718164CF59F
:100880006FA178A589A59AA520E030E040E251E467
:100890000E946C15DC01CB01BC01CD010E949613B6
:1008A000DC01CB019AA389A30FC080E791E098A354
:1008B0008F8F8F8D98A10197F1F798A38F8F89A1C2
:1008C0009AA101979AA389A389A19AA1009769F790
:1008D00014C06BA17CA18DA19EA10E949613DC0186
:1008E000CB019AA389A389A19AA19E8F8D8F8D8D0B
:1008F0009E8D0197F1F79E8F8D8FA8E2B0E0E8E220
:10090000F0E080818B7F8C9380E090E0A0E8BFE3F3
:10091000898F9A8FAB8FBC8F698D7A8D8B8D9C8DD3
:1009200026E636E646E655E40E946C15DC01CB016E
:100930008D8B9E8BAF8BB88F6D897E898F89988DBB
:1009400020E030E040E85FE30E94721788232CF437
:1009500081E090E09C8B8B8B3FC06D897E898F8975
:10096000988D20E03FEF4FE757E40E9412171816CA
:100970004CF5698D7A8D8B8D9C8D20E030E040E2C6
:1009800051E40E946C15DC01CB01BC01CD010E9439
:100990009613DC01CB019C8B8B8B0FC080E791E021
:1009A0009A8B898B89899A890197F1F79A8B898B20
:1009B0008B899C8901979C8B8B8B8B899C89009759
:1009C00069F714C06D897E898F89988D0E9496136E
:1009D000DC01CB019C8B8B8B8B899C89988B8F87BF
:1009E0008F8598890197F1F7988B8F87A8E2B0E0FF
:1009F000E8E2F0E080818E7F8C93A8E2B0E0E8E24C
:100A0000F0E080818D7F8C93E8E2F0E080E28083EB
:100A1000A8E2B0E0E8E2F0E0808184608C9380E0BE
:100A200090E0A0EAB0E48B879C87AD87BE876B859A
:100A30007C858D859E8526E636E646E655E40E9451
:100A40006C15DC01CB018F839887A987BA876F81EA
:100A5000788589859A8520E030E040E85FE30E9450
:100A6000721788232CF481E090E09E838D833FC031
:100A70006F81788589859A8520E03FEF4FE757E4BD
:100A80000E94121718164CF56B857C858D859E8506
:100A900020E030E040E251E40E946C15DC01CB0123
:100AA000BC01CD010E949613DC01CB019E838D8396
:100AB0000FC080E791E09C838B838B819C810197A1
:100AC000F1F79C838B838D819E8101979E838D831B
:100AD0008D819E81009769F714C06F817885898523
:100AE0009A850E949613DC01CB019E838D838D81B4
:100AF0009E819A83898389819A810197F1F79A83EC
:100B00008983A8E2B0E0E8E2F0E080818B7F8C93FB
:100B1000C059DF4F0FB6F894DEBF0FBECDBFCF91E7
:100B2000DF911F910F910895DF93CF93CDB7DEB77B
:100B30002E970FB6F894DEBF0FBECDBF80E090E0D9
:100B4000A0E8BFE38B879C87AD87BE876B857C85DC
:100B50008D859E8526E636E646E655E40E946C15B0
:100B6000DC01CB018F839887A987BA876F8178854D
:100B700089859A8520E030E040E85FE30E947217A3
:100B800088232CF481E090E09E838D833FC06F81A9
:100B9000788589859A8520E03FEF4FE757E40E94EA
:100BA000121718164CF56B857C858D859E8520E087
:100BB00030E040E251E40E946C15DC01CB01BC0145
:100BC000CD010E949613DC01CB019E838D830FC063
:100BD00080E791E09C838B838B819C810197F1F767
:100BE0009C838B838D819E8101979E838D838D81D4
:100BF0009E81009769F714C06F81788589859A85F1
:100C00000E949613DC01CB019E838D838D819E8192
:100C10009A83898389819A810197F1F79A838983DD
:100C200088E20E94280681E00E94280686E00E9451
:100C300028068EE00E94280680E80E9428062E964C
:100C40000FB6F894DEBF0FBECDBFCF91DF910895F0
:100C5000DF93CF93CDB7DEB76E970FB6F894DEBFB4
:100C60000FBECDBF8E8F8E8D8D8F8D8D807F8D8FA2
:100C7000A8E2B0E0E8E2F0E080818F708C93A8E217
:100C8000B0E0E8E2F0E090818D8D892B8C93A8E2B2
:100C9000B0E0E8E2F0E080818E7F8C93A8E2B0E0E3
:100CA000E8E2F0E080818D7F8C93A8E2B0E0E8E29A
:100CB000F0E0808184608C9380E090E0A0EAB0E472
:100CC000898F9A8FAB8FBC8F698D7A8D8B8D9C8D20
:100CD00026E636E646E655E40E946C15DC01CB01BB
:100CE0008D8B9E8BAF8BB88F6D897E898F89988D08
:100CF00020E030E040E85FE30E94721788232CF484
:100D000081E090E09C8B8B8B3FC06D897E898F89C1
:100D1000988D20E03FEF4FE757E40E941217181616
:100D20004CF5698D7A8D8B8D9C8D20E030E040E212
:100D300051E40E946C15DC01CB01BC01CD010E9485
:100D40009613DC01CB019C8B8B8B0FC080E791E06D
:100D50009A8B898B89899A890197F1F79A8B898B6C
:100D60008B899C8901979C8B8B8B8B899C890097A5
:100D700069F714C06D897E898F89988D0E949613BA
:100D8000DC01CB019C8B8B8B8B899C89988B8F870B
:100D90008F8598890197F1F7988B8F87A8E2B0E04B
:100DA000E8E2F0E080818B7F8C938E8D8F708E8F48
:100DB0008E8D8295807F8E8FA8E2B0E0E8E2F0E031
:100DC00080818F708C93A8E2B0E0E8E2F0E090813F
:100DD0008E8D892B8C93A8E2B0E0E8E2F0E0808170
:100DE0008E7F8C93A8E2B0E0E8E2F0E080818D7F16
:100DF0008C93A8E2B0E0E8E2F0E0808184608C931C
:100E000080E090E0A0EAB0E48B879C87AD87BE8746
:100E10006B857C858D859E8526E636E646E655E41F
:100E20000E946C15DC01CB018F839887A987BA8754
:100E30006F81788589859A8520E030E040E85FE31E
:100E40000E94721788232CF481E090E09E838D83AA
:100E50003FC06F81788589859A8520E03FEF4FE715
:100E600057E40E94121718164CF56B857C858D850A
:100E70009E8520E030E040E251E40E946C15DC01E8
:100E8000CB01BC01CD010E949613DC01CB019E83F6
:100E90008D830FC080E791E09C838B838B819C8145
:100EA0000197F1F79C838B838D819E8101979E83AF
:100EB0008D838D819E81009769F714C06F8178853D
:100EC00089859A850E949613DC01CB019E838D83D0
:100ED0008D819E819A83898389819A810197F1F717
:100EE0009A838983A8E2B0E0E8E2F0E080818B7F1A
:100EF0008C936E960FB6F894DEBF0FBECDBFCF9128
:100F0000DF910895DF93CF93CDB7DEB76E970FB61D
:100F1000F894DEBF0FBECDBF8E8F8E8D8D8F8D8DE1
:100F2000807F8D8FA8E2B0E0E8E2F0E080818F70F2
:100F30008C93A8E2B0E0E8E2F0E090818D8D892BFF
:100F40008C93A8E2B0E0E8E2F0E0808181608C93CD
:100F5000A8E2B0E0E8E2F0E080818D7F8C93A8E227
:100F6000B0E0E8E2F0E0808184608C9380E090E083
:100F7000A0EAB0E4898F9A8FAB8FBC8F698D7A8D90
:100F80008B8D9C8D26E636E646E655E40E946C1570
:100F9000DC01CB018D8B9E8BAF8BB88F6D897E89E9
:100FA0008F89988D20E030E040E85FE30E9472175F
:100FB00088232CF481E090E09C8B8B8B3FC06D8963
:100FC0007E898F89988D20E03FEF4FE757E40E949C
:100FD000121718164CF5698D7A8D8B8D9C8D20E03B
:100FE00030E040E251E40E946C15DC01CB01BC0111
:100FF000CD010E949613DC01CB019C8B8B8B0FC023
:1010000080E791E09A8B898B89899A890197F1F71A
:101010009A8B898B8B899C8901979C8B8B8B8B8975
:101020009C89009769F714C06D897E898F89988D96
:101030000E949613DC01CB019C8B8B8B8B899C8946
:10104000988B8F878F8598890197F1F7988B8F8779
:10105000A8E2B0E0E8E2F0E080818B7F8C938E8D97
:101060008F708E8F8E8D8295807F8E8FA8E2B0E0FC
:10107000E8E2F0E080818F708C93A8E2B0E0E8E2D3
:10108000F0E090818E8D892B8C93A8E2B0E0E8E2AD
:10109000F0E0808181608C93A8E2B0E0E8E2F0E0CB
:1010A00080818D7F8C93A8E2B0E0E8E2F0E080815F
:1010B00084608C9380E090E0A0EAB0E48B879C870A
:1010C000AD87BE876B857C858D859E8526E636E659
:1010D00046E655E40E946C15DC01CB018F839887AE
:1010E000A987BA876F81788589859A8520E030E065
:1010F00040E85FE30E94721788232CF481E090E0BF
:101100009E838D833FC06F81788589859A8520E095
:101110003FEF4FE757E40E94121718164CF56B8506
:101120007C858D859E8520E030E040E251E40E9480
:101130006C15DC01CB01BC01CD010E949613DC01D2
:10114000CB019E838D830FC080E791E09C838B83CE
:101150008B819C810197F1F79C838B838D819E818C
:1011600001979E838D838D819E81009769F714C0BE
:101170006F81788589859A850E949613DC01CB0161
:101180009E838D838D819E819A83898389819A81B3
:101190000197F1F79A838983A8E2B0E0E8E2F0E0F2
:1011A00080818B7F8C936E960FB6F894DEBF0FBE56
:1011B000CDBFCF91DF910895DF93CF93CDB7DEB749
:1011C00080E80E942806CF91DF910895DF93CF93A6
:1011D0000F920F92CDB7DEB79A8389830AC0E98157
:1011E000FA8180810E94820789819A8101969A837F
:1011F0008983E981FA818081882389F70F900F9094
:10120000CF91DF910895DF93CF9300D00F92CDB7A8
:10121000DEB789836A838981282F30E03C832B8362
:101220008B819C8182309105D9F02B813C812330C8
:10123000310534F48B819C818130910561F01EC0B1
:101240002B813C812330310581F08B819C8184305E
:10125000910581F013C08A8181580E9428060EC032
:101260008A8181540E94280609C08A818D560E9475
:10127000280604C08A818D520E9428060F900F9084
:101280000F900F90CF91DF910895DF93CF93CDB75B
:10129000DEB727970FB6F894DEBF0FBECDBF8A83A7
:1012A0006B835D834C833F832E8319828A818823DD
:1012B00019F08B81882319F40E94DC0804C08A810C
:1012C0006B810E9403098E819F818530910519F001
:1012D00089818130A9F48C819D8120E137E2B901B7
:1012E0000E94C21ACB01C09690933A0380933903AF
:1012F0008091390390913A030E94820781E08983AB
:101300008E819F818430910519F08981813011F59A
:101310008C819D8128EE33E0B9010E94C21ACB0175
:1013200090933C0380933B0380913B0390913C035B
:101330002AE030E0B9010E94C21AC09690934B0394
:1013400080934A0380914A0390914B030E94820745
:1013500081E089838E819F818330910519F0898195
:10136000813011F58C819D8124E630E0B9010E9425
:10137000C21ACB0190933C0380933B0380913B03C3
:1013800090913C032AE030E0B9010E94C21AC09655
:1013900090934703809346038091460390914703BF
:1013A0000E94820781E089838E819F81823091052E
:1013B00019F08981813011F58C819D812AE030E01E
:1013C000B9010E94C21ACB0190933C0380933B0366
:1013D00080913B0390913C032AE030E0B9010E94E8
:1013E000C21AC096909341038093400380914003BA
:1013F000909141030E94820781E089838E819F81C1
:101400008130910519F08981813091F48C819D8121
:101410002AE030E0B9010E94C21AC09690934903B5
:101420008093480380914803909149030E9482076A
:101430008E819F81863091051CF085E40E94820791
:1014400027960FB6F894DEBF0FBECDBFCF91DF91C8
:101450000895DF93CF93CDB7DEB7E1E8F0E01082D7
:10146000E5E8F0E08CEF8083E4E8F0E081E0808361
:10147000E9E8F0E083E08083E8E8F0E08FEF808344
:10148000EBE8F0E083E08083EAE8F0E08FEF808330
:10149000EDE8F0E083E08083ECE8F0E08FEF80831C
:1014A000E7E8F0E083E08083E6E8F0E08FEF808318
:1014B000E0E8F0E08BEA8083E2E8F0E01082E1E827
:1014C000F0E08CE08083CF91DF910895DF93CF939C
:1014D000CDB7DEB7A4E2B0E0E4E2F0E08081806264
:1014E0008C93A5E2B0E0E5E2F0E0808180628C932D
:1014F000CF91DF910895DF93CF93CDB7DEB7A4E20C
:10150000B0E0E4E2F0E0808180648C93A5E2B0E09A
:10151000E5E2F0E0808180648C93CF91DF910895C3
:10152000DF93CF93CDB7DEB7A4E2B0E0E4E2F0E022
:10153000808180688C93A5E2B0E0E5E2F0E08081F4
:1015400080688C93CF91DF910895DF93CF93CDB7CF
:10155000DEB7E9E8F0E083E08083E8E8F0E08FEFD1
:101560008083CF91DF910895DF93CF93CDB7DEB71E
:10157000EBE8F0E083E08083EAE8F0E08FEF80833F
:10158000CF91DF910895DF93CF93CDB7DEB7EDE82C
:10159000F0E083E08083ECE8F0E08FEF8083CF9190
:1015A000DF9108950F931F93DF93CF9300D00F9295
:1015B0000F92CDB7DEB78D8380E090E0A0E0B0E081
:1015C00089839A83AB83BC838D81882F90E0A0E0D0
:1015D000B0E0BC01CD010E945418DC01CB01BC017C
:1015E000CD012BE734E14EEE5FE30E946616DC018D
:1015F000CB01BC01CD0120E030E04CE052E40E9480
:101600003F15DC01CB0189839A83AB83BC83E9E876
:10161000F0E0108208E810E069817A818B819C817A
:101620000E949613DC01CB01F80180830F900F908C
:101630000F900F900F90CF91DF911F910F91089510
:101640000F931F93DF93CF9300D00F920F92CDB7DC
:10165000DEB78D8380E090E0A0E0B0E089839A83DC
:10166000AB83BC838D81882F90E0A0E0B0E0BC010B
:10167000CD010E945418DC01CB01BC01CD012BE748
:1016800034E14EEE5FE30E946616DC01CB01BC0143
:10169000CD0120E030E04CE052E40E943F15DC0137
:1016A000CB0189839A83AB83BC83EBE8F0E01082A3
:1016B0000AE810E069817A818B819C810E949613EF
:1016C000DC01CB01F80180830F900F900F900F90F9
:1016D0000F90CF91DF911F910F9108950F931F935A
:1016E000DF93CF9300D00F920F92CDB7DEB78D83EB
:1016F00080E090E0A0E0B0E089839A83AB83BC8374
:101700008D81882F90E0A0E0B0E0BC01CD010E9467
:101710005418DC01CB01BC01CD012BE734E14EEEC6
:101720005FE30E946616DC01CB01BC01CD0120E025
:1017300030E04CE052E40E943F15DC01CB0189838C
:101740009A83AB83BC83EDE8F0E010820CE810E0F4
:1017500069817A818B819C810E949613DC01CB0187
:10176000F80180830F900F900F900F900F90CF9102
:10177000DF911F910F910895DF93CF93CDB7DEB71F
:101780000E94660A0E947B0A0E94900ACF91DF9114
:101790000895DF93CF93CDB7DEB7A7E2B0E0E7E2DD
:1017A000F0E08081876F8C93A8E2B0E0E8E2F0E09F
:1017B000808180788C93CF91DF910895DF93CF93D0
:1017C000CDB7DEB7A7E2B0E0E7E2F0E08081886065
:1017D0008C93A8E2B0E0E8E2F0E08081877F8C9310
:1017E000CF91DF910895DF93CF93CDB7DEB7ADE210
:1017F000B0E0EDE2F0E080818F7E8C93AEE2B0E06D
:10180000EEE2F0E0808180618C93CF91DF910895CA
:10181000DF93CF93CDB7DEB7ADE2B0E0EDE2F0E01D
:1018200080818F7D8C93AEE2B0E0EEE2F0E08081CB
:1018300080628C93CF91DF910895DF93CF930F92C5
:10184000CDB7DEB7A1E2B0E0E1E2F0E080818F60E9
:101850008C93A2E2B0E0E2E2F0E08081807F8C93A2
:10186000EDE2F0E08FE08083EEE2F0E08081EEE2F6
:10187000F0E01082AAE0B1E0EAE0F1E08081886166
:101880008C93ABE0B1E0EBE0F1E0808188618C9378
:101890000F90CF91DF910895DF93CF93CDB7DEB74F
:1018A000E0E3F0E01082E1E3F0E01082E7E0F1E055
:1018B0001082E8E0F1E01082CF91DF910895DF938C
:1018C000CF93CDB7DEB70E944C0C0E941D0C0E9436
:1018D000DE0B0E94F30B0E94080C0E94C90BCF91F3
:1018E000DF910895DF93CF930F92CDB7DEB71982C2
:1018F000E6E2F0E080818983898188608983E8E27B
:10190000F0E0898180830F90CF91DF910895DF937C
:10191000CF930F92CDB7DEB71982E6E2F0E0808177
:1019200089838981877F8983E8E2F0E089818083E8
:101930000F90CF91DF910895DF93CF93CDB7DEB7AE
:10194000E1ECF0E01082E0ECF0E01082E2ECF0E09C
:1019500086E08083E4ECF0E08FE58083E5ECF0E066
:101960001082E1ECF0E088E98083CF91DF91089567
:10197000DF93CF93CDB7DEB7F894AAE6B0E0EAE6FE
:10198000F0E0808182608C93ADE3B0E0EDE3F0E0C5
:10199000808180618C937894CF91DF910895DF935B
:1019A000CF93CDB7DEB7F894AAE6B0E0EAE6F0E070
:1019B000808188608C93ADE3B0E0EDE3F0E080815E
:1019C00080628C937894CF91DF910895EF92FF928B
:1019D0000F931F93DF93CF93CDB7DEB72C970FB63E
:1019E000F894DEBF0FBECDBF9C878B878B859C850F
:1019F000CC01A0E0B0E0BC01CD010E945418DC0194
:101A0000CB01BC01CD0127EA37EE4EE85CE30E9432
:101A10006C15DC01CB017C018D018091000290915D
:101A20000102AA2797FDA095BA2FBC01CD010E9403
:101A3000A2179B01AC01C801B7010E946C15DC0123
:101A4000CB018F839887A987BA87809102029091F2
:101A50000302A0910402B0910502BC01CD0123EC68
:101A600035EF48EC50E40E946C15DC01CB018B8310
:101A70009C83AD83BE836F81788589859A8520E0BC
:101A800030E040EF51E40E946C15DC01CB01BC0159
:101A9000CD012B813C814D815E810E946616DC0167
:101AA000CB01BC01CD010E940018DC01CB019A835F
:101AB000898389819A812C960FB6F894DEBF0FBE78
:101AC000CDBFCF91DF911F910F91FF90EF900895BF
:101AD000DF93CF9300D000D0CDB7DEB79E838D8348
:101AE00019821A821B821C828D819E81CC01A0E00A
:101AF000B0E089839A83AB83BC8310921203109267
:101B00001303109214031092150380911203909105
:101B10001303A0911403B091150380930E039093C7
:101B20000F03A0931003B0931103E2E2F0E085E00D
:101B3000808380910E0390910F03A0911003B091C8
:101B400011039C0181E061E0A90124E030E00E94E2
:101B5000450920910E0330910F03409110035091DD
:101B6000110389819A81AB81BC8182179307A407F5
:101B7000B507F8F6E2E2F0E0108210921B03109233
:101B80001A0326960FB6F894DEBF0FBECDBFCF91D5
:101B9000DF910895DF93CF9300D000D0CDB7DEB7AB
:101BA0009E838D8319821A821B821C828D819E8165
:101BB000CC01A0E0B0E089839A83AB83BC83109210
:101BC00012031092130310921403109215038091C4
:101BD000120390911303A0911403B0911503809305
:101BE0000E0390930F03A0931003B0931103E2E24E
:101BF000F0E084E08083209116033091170381E0A8
:101C000061E0A90124E030E00E944509209112031F
:101C100030911303409114035091150389819A81E7
:101C2000AB81BC8182179307A407B50720F7E2E2D6
:101C3000F0E0108210921F0310921E0326960FB63A
:101C4000F894DEBF0FBECDBFCF91DF910895DF9333
:101C5000CF9300D000D0CDB7DEB79E838D8319829D
:101C60001A821B821C828D819E81CC01A0E0B0E093
:101C700089839A83AB83BC8310921203109213035F
:101C80001092140310921503809112039091130384
:101C9000A0911403B091150380930E0390930F034A
:101CA000A0931003B0931103E2E2F0E08AE0808396
:101CB000209116033091170381E061E0A90124E02F
:101CC00030E00E94450920910E0330910F034091AE
:101CD00010035091110389819A81AB81BC818217D5
:101CE0009307A407B50720F7E2E2F0E01082109214
:101CF0001D0310921C0326960FB6F894DEBF0FBE8C
:101D0000CDBFCF91DF910895DF93CF9300D000D066
:101D1000CDB7DEB79E838D8319821A821B821C8207
:101D20008D819E81CC01A0E0B0E089839A83AB8352
:101D3000BC8310921203109213031092140310929A
:101D400015038091120390911303A0911403B09195
:101D5000150380930E0390930F03A0931003B09389
:101D60001103E2E2F0E082E0808380910E03909123
:101D70000F03A0911003B09111039C0181E061E079
:101D8000A90124E030E00E94450920910E03309122
:101D90000F03409110035091110389819A81AB8107
:101DA000BC8182179307A407B507F8F6E2E2F0E0DA
:101DB0001082109221031092200326960FB6F894F9
:101DC000DEBF0FBECDBFCF91DF910895DF93CF93DC
:101DD000CDB7DEB7EAE7F0E01082EBE7F0E0108283
:101DE000ECE7F0E080E28083E0E5F0E080E88083EB
:101DF000EAE7F0E086E88083CF91DF910895DF93F2
:101E0000CF930F920F92CDB7DEB78A838A81883045
:101E100020F0EBE7F0E088E080838A8187708A8396
:101E2000ECE7F0E08A8180628083AAE7B0E0EAE72D
:101E3000F0E0808180648C93EAE7F0E08081882F75
:101E400090E0807190700097B9F3E9E7F0E080814D
:101E50008983AAE7B0E0EAE7F0E0808180618C93B3
:101E6000EBE7F0E0108289810F900F90CF91DF9126
:101E70000895DF93CF9300D0CDB7DEB789836A830F
:101E80004B838B810E94FF0E80933D0380913D0325
:101E9000282F30E089816A81A90123E030E00E9487
:101EA00045090F900F900F90CF91DF91089578948E
:101EB0001F920F920FB60F9211248F939F93AF939F
:101EC000BF93DF93CF93CDB7DEB780910E03909190
:101ED0000F03A0911003B09111030196A11DB11D34
:101EE00080930E0390930F03A0931003B0931103FC
:101EF000CF91DF91BF91AF919F918F910F900FBEC6
:101F00000F901F90189578941F920F920FB60F9212
:101F100011248F939F93AF93BF93DF93CF93CDB74C
:101F2000DEB78091120390911303A0911403B09136
:101F300015030196A11DB11D809312039093130305
:101F4000A0931403B0931503CF91DF91BF91AF918C
:101F50009F918F910F900FBE0F901F9018951F9219
:101F60000F920FB60F9200905B000F9211242F93E7
:101F70003F934F935F936F937F938F939F93AF9311
:101F8000BF93EF93FF93DF93CF93CDB7DEB78BE093
:101F90000E94FF0E8093370386E00E94FF0E80931D
:101FA000380381E061E04BE00E94390F81E065E099
:101FB00046E00E94390F10923603809138038C3D21
:101FC00020F080913703833830F081E0809336032E
:101FD000E2E2F0E01082E6ECF0E08081882F90E011
:101FE0009093430380934203E6ECF0E08091420338
:101FF000909143038083E6ECF0E08081282F30E06D
:1020000082E061E0A90124E030E00E94450980916E
:102010004203909143038130910539F481E090E0CF
:1020200090931903809318039EC18091420390916D
:1020300043038230910539F482E090E090931903D4
:102040008093180390C180914203909143038330A1
:10205000910539F483E090E090931903809318037D
:1020600082C180914203909143038830910589F4A5
:1020700080911803909119038130910551F480915A
:102080003603882309F06FC1E2E2F0E086E0808346
:102090006AC180914203909143038930910561F4B4
:1020A00080911803909119038130910529F4E2E29F
:1020B000F0E089E0808357C180914203909143030F
:1020C0008530910559F4809118039091190381305E
:1020D000910521F4E2E2F0E0108245C180914203D3
:1020E000909143038C3091056CF180914203909163
:1020F00043038733910534F58091180390911903B8
:1021000081309105F9F48091420390914303282F87
:1021100030E081E061E0A90124E030E00E9445095F
:1021200081E090E090931D0380931C038091420313
:10213000909143030A970E94E60C909317038093B3
:10214000160311C180914203909143038733910597
:1021500034F1809118039091190381309105F9F4BD
:102160008091420390914303282F30E081E061E0A9
:10217000A90124E030E00E94450981E090E09093BD
:102180001B0380931A038091420390914303C797E6
:102190000E94E60C9093170380931603E4C080918D
:1021A0004203909143038C3091056CF1809142037E
:1021B000909143038733910534F5809118039091F2
:1021C000190382309105F9F4809142039091430301
:1021D000282F30E081E061E0A90124E030E00E9496
:1021E000450981E090E09093210380932003809142
:1021F0004203909143030A970E94E60C90931703C1
:1022000080931603B0C080914203909143038733BB
:10221000910534F180911803909119038230910552
:10222000F9F48091420390914303282F30E081E03C
:1022300061E0A90124E030E00E94450981E090E0DE
:1022400090931F0380931E03809142039091430358
:10225000C7970E94E60C909317038093160383C0E0
:1022600080911803909119038330910509F03EC0C5
:1022700080914203909143038A359105BCF180918E
:102280004203909143038A55904090934303809377
:10229000420320912C0330912D03809142039091B1
:1022A0004303A901481B590BCA01833091057CF4F3
:1022B00080912C0390912D03209142033091430390
:1022C000821B930B5FEF8E3F95070CF04CC0809103
:1022D0004203909143030E946E0B809142039091C0
:1022E000430390932D0380932C033DC080911803EA
:1022F0009091190383309105B1F58091420390913B
:102300004303992384F180914203909143038A35DA
:1023100091054CF580912A0390912B032091420363
:1023200030914303821B930B8830910574F48091A4
:102330002A0390912B032091420330914303821B87
:10234000930B2FEF893F920774F480914203909191
:10235000430390932B0380932A038091420390912F
:1023600043030E94D20ACF91DF91FF91EF91BF9179
:10237000AF919F918F917F916F915F914F913F911D
:102380002F910F9000925B000F900FBE0F901F9047
:102390001895DF93CF93CDB7DEB7F8940E945F0C0A
:1023A0000E949C0C0E94B80C0E94CF0C0E94BC0B97
:1023B0000E94E60E0E94290A7894CF91DF91089539
:1023C000DF93CF93CDB7DEB7AA970FB6F894DEBFF1
:1023D0000FBECDBF0E94C9110E9495000E949405B6
:1023E00080E00E94D20A80E090E0A0EFB1E48FA3E9
:1023F00098A7A9A7BAA76FA178A589A59AA526E647
:1024000036E646E655E40E946C15DC01CB018BA351
:102410009CA3ADA3BEA36BA17CA18DA19EA120E036
:1024200030E040E85FE30E94721788232CF481E0DB
:1024300090E09AA389A33FC06BA17CA18DA19EA12E
:1024400020E03FEF4FE757E40E94121718164CF5B3
:102450006FA178A589A59AA520E030E040E251E47B
:102460000E946C15DC01CB01BC01CD010E949613CA
:10247000DC01CB019AA389A30FC080E791E098A368
:102480008F8F8F8D98A10197F1F798A38F8F89A1D6
:102490009AA101979AA389A389A19AA1009769F7A4
:1024A00014C06BA17CA18DA19EA10E949613DC019A
:1024B000CB019AA389A389A19AA19E8F8D8F8D8D1F
:1024C0009E8D0197F1F79E8F8D8F80E00E94200BEB
:1024D00080E090E0A0EFB1E4898F9A8FAB8FBC8F42
:1024E000698D7A8D8B8D9C8D26E636E646E655E421
:1024F0000E946C15DC01CB018D8B9E8BAF8BB88F4E
:102500006D897E898F89988D20E030E040E85FE317
:102510000E94721788232CF481E090E09C8B8B8BB7
:102520003FC06D897E898F89988D20E03FEF4FE70E
:1025300057E40E94121718164CF5698D7A8D8B8D11
:102540009C8D20E030E040E251E40E946C15DC01FB
:10255000CB01BC01CD010E949613DC01CB019C8B09
:102560008B8B0FC080E791E09A8B898B89899A8940
:102570000197F1F79A8B898B8B899C8901979C8BAA
:102580008B8B8B899C89009769F714C06D897E8934
:102590008F89988D0E949613DC01CB019C8B8B8BCD
:1025A0008B899C89988B8F878F8598890197F1F704
:1025B000988B8F8780E00E946E0B80E090E0A0EF08
:1025C000B1E48B879C87AD87BE876B857C858D85C5
:1025D0009E8526E636E646E655E40E946C15DC014B
:1025E000CB018F839887A987BA876F817885898582
:1025F0009A8520E030E040E85FE30E94721788236C
:102600002CF481E090E09E838D833FC06F817885BC
:1026100089859A8520E03FEF4FE757E40E94121723
:1026200018164CF56B857C858D859E8520E030E005
:1026300040E251E40E946C15DC01CB01BC01CD01EC
:102640000E949613DC01CB019E838D830FC080E72F
:1026500091E09C838B838B819C810197F1F79C8314
:102660008B838D819E8101979E838D838D819E8139
:10267000009769F714C06F81788589859A850E94D3
:102680009613DC01CB019E838D838D819E819A837D
:10269000898389819A810197F1F79A8389831092BE
:1026A000360380911A0390911B038130910551F4F8
:1026B00080911603909117030E94680D10921703E2
:1026C0001092160380911C0390911D038130910597
:1026D00051F480911603909117030E94270E1092D7
:1026E00017031092160380911E0390911F038130EF
:1026F000910551F480911603909117030E94CA0D21
:1027000010921703109216038091200390912103D9
:102710008130910521F680911603909117030E9454
:10272000840E1092170310921603B9CFEF92FF9206
:102730000F931F937B018C0120E030E040E05FE4C9
:102740000E94421788238CF0C801B70120E030E0D6
:1027500040E05FE40E940E150E9400189B01AC014E
:10276000205030404040504806C0C801B7010E9488
:1027700000189B01AC01B901CA011F910F91FF9094
:10278000EF900895A0E0B0E0E8ECF3E10C94D61AE5
:10279000DC012B01FA019C91923008F439C1EB0164
:1027A0008881823008F433C1943069F4843009F0B0
:1027B0002FC111969C9111978981981709F428C10E
:1027C000A6E0B2E025C1843009F421C18230A9F429
:1027D000923009F01DC19A01AD0188E0EA0109902B
:1027E000AE01E90109929E018150C1F7E2018981A0
:1027F00011969C918923818308C1923009F407C105
:1028000012962D903C901397EB018A819B81149630
:10281000AD90BD90CD90DC901797EC80FD800E813F
:102820001F819101281B390BB90137FF04C06627AE
:102830007727621B730B603271050CF061C01216B2
:1028400013066CF537014801062E04C09694879450
:10285000779467940A94D2F721E030E040E050E0AA
:1028600004C0220F331F441F551F6A95D2F7215011
:102870003040404050402E213F214023512321151C
:1028800031054105510521F021E030E040E050E004
:1028900079018A01E628F728082919293CC0232B49
:1028A000D1F1260E371E35014601062E04C096943E
:1028B0008794779467940A94D2F721E030E040E05F
:1028C00050E004C0220F331F441F551F6A95D2F7F2
:1028D00021503040404050402A213B214C215D2175
:1028E000211531054105510521F021E030E040E09E
:1028F00050E059016A01A628B728C828D9280BC07A
:10290000821593052CF01C01AA24BB24650103C089
:10291000EE24FF24870111969C91D20111968C918F
:10292000981709F445C0992339F0A80197012A198D
:102930003B094C095D0906C0A60195012E193F0906
:10294000400B510B57FD08C0118233822282248331
:102950003583468357831DC081E081833382228281
:1029600088279927DC01821B930BA40BB50B84836A
:102970009583A683B7830DC0220F331F441F551FB5
:102980002483358346835783828193810197938380
:1029900082832481358146815781DA01C9010197FB
:1029A000A109B1098F5F9F4FAF4FBF4328F30BC001
:1029B000918333822282EA0CFB1C0C1D1D1DE482D4
:1029C000F5820683178383E08083248135814681E5
:1029D000578157FF1AC0C901AA2797FDA095BA2FA2
:1029E00081709070A070B070569547953795279577
:1029F000822B932BA42BB52B84839583A683B7833B
:102A000082819381019693838283DF0101C0D20189
:102A1000CD01CDB7DEB7E2E10C94F21AA0E2B0E04E
:102A2000E4E1F5E10C94E21A69837A838B839C8359
:102A30002D833E834F835887E9E0EE2EF12CEC0E78
:102A4000FD1ECE010196B7010E94F1198E010F5EA5
:102A50001F4FCE010596B8010E94F1198A8991E0B5
:102A600089278A8BC701B801AE01475E5F4F0E947C
:102A7000C2130E941C19A096E6E00C94FE1AA0E274
:102A8000B0E0E5E4F5E10C94E21A69837A838B8384
:102A90009C832D833E834F835887F9E0EF2EF12CE2
:102AA000EC0EFD1ECE010196B7010E94F1198E01B8
:102AB0000F5E1F4FCE010596B8010E94F119C701A4
:102AC000B801AE01475E5F4F0E94C2130E941C19FD
:102AD000A096E6E00C94FE1AA0E2B0E0E2E7F5E191
:102AE0000C94D61A69837A838B839C832D833E83CF
:102AF0004F835887CE010196BE01675F7F4F0E94CA
:102B0000F119CE010596BE016F5E7F4F0E94F1194B
:102B10009985923088F089898230C8F0943019F410
:102B2000823051F404C0843029F4923081F486E07C
:102B300092E0C6C0923049F420E09A858A899813C1
:102B400021E02A87CE010996BBC0823049F420E0FB
:102B50009A858A89981321E02A8BCE014196B0C0CC
:102B60002D843E844F8458886D887E888F88988C09
:102B7000EE24FF248701AA24BB24650140E050E035
:102B800060E070E0E0E0F0E0C10181709070892BBE
:102B9000E9F0E60CF71C081D191D9A01AB012A0D7E
:102BA0003B1D4C1D5D1D80E090E0A0E0B0E0E61410
:102BB000F7040805190520F481E090E0A0E0B0E0FA
:102BC000BA01A901480F591F6A1F7B1FAA0CBB1C21
:102BD000CC1CDD1C97FE08C081E090E0A0E0B0E0D6
:102BE000A82AB92ACA2ADB2A3196E032F10549F02F
:102BF000660C771C881C991C56944794379427942C
:102C0000C3CFFA85EA892B893C898B859C85280F5F
:102C1000391F2E5F3F4F17C0CA0181709070892BFA
:102C200061F016950795F794E79480E090E0A0E0B6
:102C3000B0E8E82AF92A0A2B1B2B76956795579559
:102C400047952F5F3F4F77FDE7CF0CC0440F551FCF
:102C5000661F771F17FD4160EE0CFF1C001F111F40
:102C600021503040403090E0590790E0690790E4EF
:102C7000790760F32B8F3C8FDB01CA018F7790704F
:102C8000A070B07080349105A105B10561F447FDD5
:102C90000AC0E114F1040105110529F0405C5F4F01
:102CA0006F4F7F4F40781A8EFE1711F081E08A8FA8
:102CB0004D8F5E8F6F8F78A383E0898FCE01499609
:102CC0000E941C19A096E2E10C94F21AA8E1B0E06F
:102CD000ECE6F6E10C94DE1A69837A838B839C839D
:102CE0002D833E834F835887B9E0EB2EF12CEC0EF9
:102CF000FD1ECE010196B7010E94F1198E010F5EF3
:102D00001F4FCE010596B8010E94F1192985223086
:102D100008F47EC03989323010F4B8017CC08A854D
:102D20009A8989278A87243011F0223031F42317B9
:102D300009F06EC066E072E06EC0343039F41D8672
:102D40001E861F86188A1C861B8604C0323021F41A
:102D500084E08987B7015FC02B853C858B899C897E
:102D6000281B390B3C872B87ED84FE840F8518893F
:102D7000AD88BE88CF88D88CEA14FB040C051D05ED
:102D800040F4EE0CFF1C001F111F215030403C8707
:102D90002B8720E030E040E050E080E090E0A0E0D1
:102DA000B0E460E070E0EA14FB040C051D0540F09F
:102DB000282B392B4A2B5B2BEA18FB080C091D0921
:102DC000B695A79597958795EE0CFF1C001F111FD0
:102DD0006F5F7F4F6F31710531F7DA01C9018F776E
:102DE0009070A070B07080349105A105B10561F4B8
:102DF00027FD0AC0E114F1040105110529F0205C4A
:102E00003F4F4F4F5F4F20782D873E874F87588B1E
:102E1000BE01675F7F4FCB010E941C196896EAE0F4
:102E20000C94FA1AA8E1B0E0E8E1F7E10C94E21A98
:102E300069837A838B839C832D833E834F8358875A
:102E400089E0E82EF12CEC0EFD1ECE010196B701B3
:102E50000E94F1198E010F5E1F4FCE010596B80139
:102E60000E94F1198985823040F08989823028F0EA
:102E7000C701B8010E94691A01C08FEF6896E6E0A9
:102E80000C94FE1AA8E1B0E0E8E4F7E10C94E21A31
:102E900069837A838B839C832D833E834F835887FA
:102EA00089E0E82EF12CEC0EFD1ECE010196B70153
:102EB0000E94F1198E010F5E1F4FCE010596B801D9
:102EC0000E94F1198985823040F08989823028F08A
:102ED000C701B8010E94691A01C08FEF6896E6E049
:102EE0000C94FE1AA8E1B0E0E8E7F7E10C94E21ACE
:102EF00069837A838B839C832D833E834F8358879A
:102F000089E0E82EF12CEC0EFD1ECE010196B701F2
:102F10000E94F1198E010F5E1F4FCE010596B80178
:102F20000E94F1198985823040F08989823028F029
:102F3000C701B8010E94691A01C081E06896E6E005
:102F40000C94FE1AA8E0B0E0E8EAF7E10C94DF1A6E
:102F50009B01AC0183E08983DA01C9018827B7FDB1
:102F600083959927AA27BB27B82E2115310541053E
:102F7000510519F482E089833AC08823A9F02030F2
:102F800080E0380780E0480780E8580729F460E0CF
:102F900070E080E09FEC30C0EE24FF248701E21A4D
:102FA000F30A040B150B02C079018A018EE1C82EC9
:102FB000D12CDC82CB82ED82FE820F831887C80180
:102FC000B7010E94CD1801971816190684F4082E2F
:102FD00004C0EE0CFF1C001F111F0A94D2F7ED82F3
:102FE000FE820F831887C81AD90ADC82CB82BA8284
:102FF000CE0101960E941C192896E9E00C94FB1A58
:10300000ACE0B0E0E6E0F8E10C94E61A69837A837C
:103010008B839C83CE010196BE016B5F7F4F0E9424
:10302000F1198D81823061F1823050F1843021F4C8
:103030008E81882351F12EC02F81388537FD20C025
:103040006E812F3131051CF06623F9F023C08EE12B
:1030500090E0821B930B29853A854B855C8504C0E3
:1030600056954795379527958A95D2F76623B1F0FF
:1030700050954095309521953F4F4F4F5F4F0EC073
:1030800020E030E040E050E009C02FEF3FEF4FEF8D
:103090005FE704C020E030E040E050E8B901CA0139
:1030A0002C96E2E00C94021BA8E0B0E0EAE5F8E11F
:1030B0000C94DE1A7B018C01611571058105910567
:1030C00019F482E0898360C083E089838EE1C82E91
:1030D000D12CDC82CB82ED82FE820F831887C8015F
:1030E000B7010E94CD18FC013197F7FF3BC02227A2
:1030F00033272E1B3F0B57016801022E04C0D694C4
:10310000C794B794A7940A94D2F740E050E060E0E7
:1031100070E081E090E0A0E0B0E004C0880F991F6B
:10312000AA1FBB1F2A95D2F70197A109B1098E21C9
:103130009F21A023B1230097A105B10521F041E013
:1031400050E060E070E04A295B296C297D294D83BD
:103150005E836F8378878EE190E08E1B9F0B9C834C
:103160008B8312C0309781F00E2E04C0EE0CFF1C32
:10317000001F111F0A94D2F7ED82FE820F83188779
:10318000CE1ADF0ADC82CB821A82CE0101960E941F
:103190001C192896EAE00C94FA1AEF92FF920F930A
:1031A0001F937B018C0180E0E81680E0F80681E047
:1031B000080780E0180788F48FEFE816F10401058E
:1031C000110531F028F088E090E0A0E0B0E017C0F1
:1031D00080E090E0A0E0B0E012C080E0E81680E07F
:1031E000F80680E0080781E0180728F088E190E001
:1031F000A0E0B0E004C080E190E0A0E0B0E020E218
:1032000030E040E050E0281B390B4A0B5B0B04C058
:1032100016950795F794E7948A95D2F7F701E25F40
:10322000FD4F8081281B310941095109C9011F91B6
:103230000F91FF90EF900895DF92EF92FF920F931E
:103240001F93FC01E480F58006811781D180808185
:10325000823048F480E090E0A0E1B0E0E82AF92A6A
:103260000A2B1B2BA5C0843009F49FC0823021F4A7
:10327000EE24FF24870105C0E114F10401051105C6
:1032800019F4E0E0F0E096C0628173819FEF62384C
:1032900079070CF05BC022E83FEF261B370B2A3181
:1032A00031052CF020E030E040E050E02AC0B801C9
:1032B000A701022E04C076956795579547950A9405
:1032C000D2F781E090E0A0E0B0E004C0880F991F41
:1032D000AA1FBB1F2A95D2F70197A109B1098E2118
:1032E0009F21A023B1230097A105B10521F081E022
:1032F00090E0A0E0B0E09A01AB01282B392B4A2BDB
:103300005B2BDA01C9018F779070A070B0708034A8
:103310009105A105B10539F427FF09C0205C3F4F95
:103320004F4F5F4F04C0215C3F4F4F4F5F4FE0E076
:10333000F0E02030A0E03A07A0E04A07A0E45A07F6
:1033400010F0E1E0F0E079018A0127C060387105F2
:1033500064F5FB01E158FF4FD801C7018F779070EA
:10336000A070B07080349105A105B10539F4E7FE75
:103370000DC080E490E0A0E0B0E004C08FE390E0F6
:10338000A0E0B0E0E80EF91E0A1F1B1F17FF05C0E2
:1033900016950795F794E794319687E0169507956B
:1033A000F794E7948A95D1F705C0EE24FF248701AE
:1033B000EFEFF0E06E2F679566276795902F9F7768
:1033C000D794DD24D7948E2F8695492F462B582FDE
:1033D0005D29B701CA011F910F91FF90EF90DF9017
:1033E0000895FC01DB01408151812281622F6F77BA
:1033F00070E0221F2227221F9381892F880F822BA2
:10340000282F30E0991F9927991F11969C931197A7
:1034100021153105A9F5411551056105710511F415
:1034200082E037C082E89FEF13969C938E931297A9
:103430009A01AB0167E0220F331F441F551F6A95A5
:10344000D1F783E08C930DC0220F331F441F551F0B
:1034500012968D919C911397019713969C938E933E
:103460001297203080E0380780E0480780E4580752
:1034700058F314962D933D934D935C9317970895AD
:103480002F3F310579F4411551056105710519F496
:1034900084E08C93089564FF03C081E08C9312C094
:1034A0001C9210C02F57304013963C932E931297C6
:1034B00083E08C9387E0440F551F661F771F8A9522
:1034C000D1F7706414964D935D936D937C93179729
:1034D00008951F93DC01FB019C91923008F447C0D2
:1034E0008081823008F443C0943051F411961C91CD
:1034F000843099F58181682F70E0611B71093FC0AC
:10350000843021F0923031F48230B9F18181882306
:1035100089F12DC011961C9111978230F1F08181B3
:103520001817D9F412962D913C91139782819381AB
:103530008217930794F028173907BCF014968D91E1
:103540009D910D90BC91A02D24813581468157819C
:10355000281739074A075B0718F4112341F00AC0FE
:1035600082179307A407B50740F4112319F061E00F
:1035700070E005C06FEF7FEF02C060E070E0CB014C
:103580001F910895AA1BBB1B51E107C0AA1FBB1FB7
:10359000A617B70710F0A61BB70B881F991F5A95DF
:1035A000A9F780959095BC01CD0108952F923F9287
:1035B0004F925F926F927F928F929F92AF92BF9243
:1035C000CF92DF92EF92FF920F931F93CF93DF93EF
:1035D000CDB7DEB7CA1BDB0B0FB6F894DEBF0FBE4C
:1035E000CDBF19942A88398848885F846E847D8489
:1035F0008C849B84AA84B984C884DF80EE80FD809B
:103600000C811B81AA81B981CE0FD11D0FB6F89410
:0E361000DEBF0FBECDBFED010895F894FFCFD1
:10361E0050000000CC41000000000000000000013E
:10362E000202030303030404040404040404050552
:10363E00050505050505050505050505050506062A
:10364E00060606060606060606060606060606060C
:10365E0006060606060606060606060606060707FA
:10366E0007070707070707070707070707070707DC
:10367E0007070707070707070707070707070707CC
:10368E0007070707070707070707070707070707BC
:10369E0007070707070707070707070707070808AA
:1036AE00080808080808080808080808080808088C
:1036BE00080808080808080808080808080808087C
:1036CE00080808080808080808080808080808086C
:1036DE00080808080808080808080808080808085C
:1036EE00080808080808080808080808080808084C
:1036FE00080808080808080808080808080808083C
:10370E00080808080808080808080808080808082B
:0E371E0008080808080808080808080808082D
:00000001FF
